:100000000C942A000C947D000C947D000C947D00CF
:100010000C947D000C947D000C947D000C947D006C
:100020000C947D000C947D000C947D000C947D005C
:100030000C947D000C947D000C947D000C947D004C
:100040000C947D000C947D000C947D000C947D003C
:100050000C947D0011241FBECFE5D8E0DEBFCDBFDC
:0C0060000E9436000C946B00F894FFCF57
:10006C000E9476006FEF89E00E945E0067E08BE0F3
:10007C000E945E006FE08AE00E945E0061E08CE00E
:10008C000E945E0060E0C1E010C0D1E0D60F8C2F62
:10009C000E945E002FE38DE093E021508040904061
:1000AC00E1F700C00000CF5F6D2FC93070F3EBCFCC
:1000BC0098B39F7E98BB8FB9779BFECF6FB9779B18
:0A00CC00FECF88B3806188BB089561
:1000D600EC010E9482000E948100CE010E948300F2
:0600E600CE010E947F0024
:0E00EC0087B3806B87BB8DB181658DB9089598
:0400FA000C94000062
:0400FE000E94340028
:0201020008955E
:0201040008955C
:0201060008955A
:00000001FF
