:100000000C942A000C9464000C9464000C9464001A
:100010000C9464000C9464000C9464000C946400D0
:100020000C9464000C9464000C9464000C946400C0
:100030000C9464000C9464000C9464000C946400B0
:100040000C9464000C9464000C9464000C946400A0
:100050000C94640011241FBECFE5D8E0DEBFCDBFF5
:0C0060000E9436000C944A00F894FFCF78
:10006C000E9455008FEF8ABBC0E02FE38DE093E038
:10007C00215080409040E1F700C000008C2F0E947E
:08008C005F008BBBCF5FF1CFD9
:10009400EC010E9469000E946800CE010E946A007F
:0600A400CE010E9466007F
:1000AA0087B3806B87BB87B38F7B87BB8DB1816535
:0400BA008DB908955F
:0A00BE008FB9779BFECF8FB1089534
:0400C8000C94000094
:0400CC000E9434005A
:0200D000089591
:0200D20008958F
:0200D40008958D
:00000001FF
