:100000000C942A000C946B000C946B000C946B0005
:100010000C946B000C946B000C946B000C946B00B4
:100020000C946B000C946B000C946B000C946B00A4
:100030000C946B000C946B000C946B000C946B0094
:100040000C946B000C946B000C946B000C946B0084
:100050000C946B0011241FBECFE5D8E0DEBFCDBFEE
:0C0060000E9436000C945100F894FFCF71
:10006C00CF930E945C008FEF8ABBCFEF0EC02FE3C3
:10007C008DE093E0215080409040E1F700C00000FB
:10008C008C2F0E9466008BBBC150C111F0CF80E059
:06009C0090E0CF910895F1
:1000A200EC010E9470000E946F00CE010E9471005C
:0600B200CE010E946D006A
:1000B80087B38F7E87BB87B3806487BB8DB180642D
:0400C8008DB9089551
:0A00CC008FB9779BFECF8FB1089526
:0400D6000C94000086
:0400DA000E9434004C
:0200DE00089583
:0200E000089581
:0200E20008957F
:00000001FF
