:020000040800F2
:1000000000280020D1070008210800082108000866
:10001000210800082108000821080008000000004D
:10002000000000000000000000000000210800089F
:10003000210800080000000021080008210800082D
:1000400021080008210800082108000821080008EC
:1000500021080008210800082108000821080008DC
:1000600021080008210800082108000821080008CC
:1000700021080008210800082108000821080008BC
:1000800021080008210800082108000821080008AC
:10009000210800082108000821080008210800089C
:1000A000210800082108000821080008210800088C
:1000B000210800082108000821080008210800087C
:1000C000210800082108000821080008210800086C
:1000D000210800082108000821080008210800085C
:1000E000210800082108000800000000210800087D
:1000F000210800082108000821080008210800083C
:10010000210800082108000821080008210800082B
:10011000210800082108000821080008210800081B
:10012000210800082108000821080008210800080B
:1001300010B5054C237833B9044B13B10448AFF321
:1001400000800123237010BD20000020000000006B
:10015000F80A000808B5034B1BB103490348AFF385
:10016000008008BD0000000024000020F80A0008FC
:1001700080B582B000AF0423BB710023BB80012394
:10018000FB713B1D19462C4800F068FB0423BB7132
:100190000123BB800123FB713B1D1946264800F05B
:1001A0005DFB0423BB710323BB800123FB713B1D5B
:1001B0001946214800F052FB0423BB710423BB8085
:1001C0000123FB713B1D19461B4800F047FB04232C
:1001D000BB710523BB800123FB713B1D19461648EB
:1001E00000F03CFB0423BB710623BB800123FB71A1
:1001F0003B1D1946104800F031FB0423BB71072357
:10020000BB800123FB713B1D19460B4800F026FB08
:100210000423BB710823BB800123FB713B1D1946DE
:10022000054800F01BFB0449FF2000F0F5FB00BF70
:100230000837BD4680BD00BF000C014080B582B0CC
:1002400000AF00237B60B4E05E4B1B68DBB21A4654
:100250005D49012000F0EEFB5A4B5B68DBB21A46A9
:100260005949012000F0E6FB564B9B68DBB21A4669
:100270005549012000F0DEFB524BDB68DBB21A4629
:100280005149012000F0D6FB4E4A7B6852F82330DA
:10029000DBB21A464C49002000F0CCFB00233B6047
:1002A00080E04A4A3B6852F82330DBB219464648A0
:1002B00000F0E7FB0346002B71D100BF434A3B68C7
:1002C00052F82330DBB219463F4800F0DAFB034610
:1002D000002BF3D07B68032B61D801A252F823F0E6
:1002E000F10200081903000841030008690300082F
:1002F0003B68002B01D1372360E03B68012B01D123
:1003000034235BE03B68022B01D1312356E03B688C
:10031000032B3DD13F2351E03B68002B01D1382313
:100320004CE03B68012B01D1352347E03B68022BB1
:1003300001D1322342E03B68032B2BD130233DE037
:100340003B68002B01D1392338E03B68012B01D1F8
:10035000362333E03B68022B01D133232EE03B6888
:10036000032B19D13D2329E03B68002B01D12F231A
:1003700024E03B68012B01D12A231FE03B68022BBC
:1003800001D12D231AE03B68032B07D12B2315E065
:1003900000BF04E000BF02E000BF00E000BF3B6818
:1003A00001333B603B68032B7FF77BAF7B680133F6
:1003B0007B607B68032B7FF747AF412318460837E4
:1003C000BD4680BD10000020000C01400000002050
:1003D00080B500AF4F4B04229A704E4B08221A8012
:1003E0004C4B0122DA704B494B4800F037FA494B2D
:1003F00004229A70474B09221A80464B0122DA7078
:100400004449454800F02AFA424B04229A70414B75
:100410000A221A803F4B0122DA703E493E4800F022
:100420001DFA3C4B04229A703A4B00221A80394B39
:100430000122DA703749384800F010FA354B0422AF
:100440009A70344B01221A80324B0122DA70314902
:10045000314800F003FA2F4B04229A702D4B0222F0
:100460001A802C4B0122DA702A492B4800F0F6F949
:10047000284B04229A70274B03221A80254B012215
:10048000DA702449244800F0E9F9224B04229A70DA
:10049000204B04221A801F4B0122DA701D491E488E
:1004A00000F0DCF91B4B04229A701A4B05221A80CB
:1004B000184B0122DA701749174800F0CFF9154B95
:1004C00004229A70134B06221A80124B0122DA7012
:1004D0001049114800F0C2F90E4B04229A700D4BDE
:1004E00007221A800B4B0122DA700A490A4800F0F1
:1004F000B5F90A220849002000F09CFA08220649B2
:10050000002000F097FA09220349002000F092FA37
:1005100000BF80BD3C0000200008014080B500AF56
:10052000012000F05BF800BF80BD000080B500AF87
:100530000A220749012000F07DFA322000F071F90B
:100540000A220349002000F075FA00BF80BD00BFF9
:100550000008014080B582B000AF03460A46FB7137
:100560001346BB71FB79012B08D1BB790F2B05D842
:10057000BB79803BDBB2184600F030F8FB79022BE8
:1005800008D1BB790F2B05D8BB79403BDBB21846AD
:1005900000F024F800BF0837BD4680BD80B500AF2D
:1005A0000D4B00221A60142000F03BF9FFF710FFFA
:1005B0000F2000F036F9012000F010F8382000F08C
:1005C0000DF8062000F00AF8802000F007F80F2050
:1005D00000F004F800BF80BD4000002080B582B06C
:1005E00000AF0346FB71FB799BB20B49184600F044
:1005F00013FA09220849002000F01CFA08220649D3
:10060000002000F017FA012000F00BF9FFF78EFF31
:1006100000BF0837BD4680BD0008014080B582B0EC
:1006200000AF0346FB711A4B1B68102B04D100214D
:100630000220FFF78FFF0DE0154B1B68202B09D11F
:100640000120FFF7CBFF00210120FFF783FF104BB4
:1006500000221A600E4B1B6801330D4A1360FB79B0
:100660009BB20C49184600F0D7F90922094900202D
:1006700000F0E0F908220749012000F0DBF9012031
:1006800000F0CFF8FFF752FF00BF0837BD4680BD2E
:10069000400000200008014080B582B000AF7860C3
:1006A0001EE07B681B781846FFF7B8FF104B1B68ED
:1006B000102B04D100210220FFF74CFF0DE00C4B62
:1006C0001B68202B09D10120FFF788FF00210120A2
:1006D000FFF740FF064B00221A607B6801337B6006
:1006E0007B681B78002BDCD100BF0837BD4680BD7E
:1006F0004000002080B588B000AF304B9B692F4A86
:1007000043F0040393612D4B9B692C4A43F008038B
:100710009361FFF743FF2A48FFF7BEFF1E2000F05A
:1007200080F8FFF7FBFE274A07F1100307CA03C34F
:100730001A800233120C1A70234A3B1D07CA03C3E6
:100740001A800233120C1A700023FB771BE0FB7F28
:1007500007F12002134413F8103C9BB25B029BB2DA
:100760001A49184600F058F9FB7F07F1200213449C
:1007700013F81C3C1846FFF751FF642000F051F8B5
:10078000FB7F0133FB77FB7F0A2BE0D9FFF7C6FE27
:10079000FFF7EEFCFFF752FD0346BB77BB7F3F2B15
:1007A00002D0412B08D002E0FFF7B8FE05E0BB7F86
:1007B0001846FFF733FF00E000BFEBE700100240F0
:1007C000100B00083C0B0008480B0008000C01400F
:1007D0000D488546AFF300800C480D490D4A0023B3
:1007E00002E0D458C4500433C4188C42F9D30A4AE6
:1007F0000A4C002301E013600432A242FBD300F054
:1008000057F9FFF777FFFEE70028002000000020DF
:10081000200000205C0B0008200000204400002085
:10082000FEE780B485B000AF78600023FB600BE08A
:100830000023BB6002E0BB680133BB60BB68FE2BDA
:10084000F9D9FB680133FB60FA687B689A42EFD301
:1008500000BF1437BD4680BC7047000080B485B02F
:1008600000AF786039603B689B78032B30D83B68D9
:100870009B78032B5DD801A252F823F08D08000865
:100880009308000899080008B30800080023FB60DB
:100890004FE00423FB604CE00823FB607B68DB68CF
:1008A0003A681288114601228A401A437B68DA604E
:1008B0003FE00823FB607B68DB683A6812881146DA
:1008C00001228A40D2431A407B68DA6000BF30E0E0
:1008D0003B689B78032B2CD93B689B78072B28D847
:1008E0003B689B78043B032B23D801A252F823F0EA
:1008F000010900080909000817090008250900086E
:100900003B68DB78FB6014E03B68DB7843F0040372
:10091000DBB2FB600DE03B68DB7843F00803DBB241
:10092000FB6006E03B68DB7843F00C03DBB2FB6066
:1009300000BF3B681B88072B17D87B681B683A6889
:10094000128892000F2101FA02F2D2431A407B680A
:100950001A607B681A683B681B889B00F96801FA7B
:1009600003F31A437B681A6051E03B681B88102B25
:1009700030D1FB681A01FB681A43FB681B021A435B
:10098000FB681B031A43FB681B041A43FB681B0527
:100990001A43FB681B061A43FB681B071A437B6854
:1009A0001A60FB681A01FB681A43FB681B021A43B2
:1009B000FB681B031A43FB681B041A43FB681B05F7
:1009C0001A43FB681B061A43FB681B071A437B6824
:1009D0005A601CE03B681B880F2B18D87B685B684B
:1009E0003A681288083A92000F2101FA02F2D243C3
:1009F0001A407B685A607B685A683B681B88083BD2
:100A00009B00F96801FA03F31A437B685A6000BF40
:100A10001437BD4680BC704780B483B000AF034636
:100A20003960FB80FA883B68DA6000BF0C37BD464E
:100A300080BC704780B483B000AF03463960FB715F
:100A40001346BB71FB79002B0AD13B68DB68BA798E
:100A5000012101FA02F2D2431A403B68DA600BE04E
:100A6000FB79012B08D13B68DB68BA79012101FAD7
:100A700002F21A433B68DA6000BF0C37BD4680BC07
:100A8000704780B483B000AF78600B46FB707B6822
:100A90009B68FA78012101FA02F21340002B01D180
:100AA000002300E0012318460C37BD4680BC704788
:100AB00070B500250C4E0D4CA41BA410A54209D105
:100AC00000F01AF800250A4E0A4CA41BA410A542F7
:100AD00005D170BD56F8253098470135EEE756F838
:100AE000253098470135F2E7540B0008540B0008F5
:100AF000540B0008580B0008F8B500BFF8BC08BC40
:100B00009E467047F8B500BFF8BC08BC9E467047CB
:100B10004C6561726E20696E2064657074682E2069
:100B200044726976657273206D6164652062792014
:100B30004D696368656C204164656C0001792430FF
:100B40004C1202190010010030313233343536377F
:040B50003839300000
:040B5400550100083F
:040B5800310100085F
:100B5C000000000001000000030000000400000081
:100B6C00050000000600000007000000080000005F
:04000005080007D117
:00000001FF
