:020000040800F2
:1000000000280020F90500084906000849060008F4
:1000100049060008490600084906000800000000DB
:100020000000000000000000000000004906000879
:1000300049060008000000004906000849060008BB
:100040004906000849060008490600084906000854
:100050004906000849060008E1090008050A0008E9
:10006000290A00084D0A0008710A0008490600081C
:100070004906000849060008490600084906000824
:100080004906000849060008490600084906000814
:10009000490600084906000849060008950A0008B4
:1000A00049060008490600084906000849060008F4
:1000B00049060008490600084906000849060008E4
:1000C00049060008490600084906000849060008D4
:1000D00049060008490600084906000849060008C4
:1000E0003D0B000849060008000000004906000812
:1000F00049060008490600084906000849060008A4
:100100004906000849060008490600084906000893
:100110004906000849060008490600084906000883
:100120004906000849060008490600084906000873
:1001300010B5054C237833B9044B13B10448AFF321
:1001400000800123237010BD00000020000000008B
:10015000A80E000808B5034B1BB103490348AFF3D1
:10016000008008BD0000000004000020A80E000868
:1001700080B582B000AF0423BB710023BB80012394
:10018000FB713B1D19462C4800F056FD0423BB7142
:100190000123BB800123FB713B1D1946264800F05B
:1001A0004BFD0423BB710323BB800123FB713B1D6B
:1001B0001946214800F040FD0423BB710423BB8095
:1001C0000123FB713B1D19461B4800F035FD04233C
:1001D000BB710523BB800123FB713B1D19461648EB
:1001E00000F02AFD0423BB710623BB800123FB71B1
:1001F0003B1D1946104800F01FFD0423BB71072367
:10020000BB800123FB713B1D19460B4800F014FD18
:100210000423BB710823BB800123FB713B1D1946DE
:10022000054800F009FD0449FF2000F0E3FD00BF90
:100230000837BD4680BD00BF000C014080B500AF4F
:100240004F4B04229A704E4B08221A804C4B0122CD
:10025000DA704B494B4800F0EFFC494B04229A708E
:10026000474B09221A80464B0122DA70444945481F
:1002700000F0E2FC424B04229A70414B0A221A80A1
:100280003F4B0122DA703E493E4800F0D5FC3C4B22
:1002900004229A703A4B00221A80394B0122DA70FC
:1002A0003749384800F0C8FC354B04229A70344B6B
:1002B00001221A80324B0122DA703149314800F0B4
:1002C000BBFC2F4B04229A702D4B02221A802C4B20
:1002D0000122DA702A492B4800F0AEFC284B042298
:1002E0009A70274B03221A80254B0122DA70244989
:1002F000244800F0A1FC224B04229A70204B0422D7
:100300001A801F4B0122DA701D491E4800F094FC30
:100310001B4B04229A701A4B05221A80184B01229B
:10032000DA701749174800F087FC154B04229A70C1
:10033000134B06221A80124B0122DA701049114821
:1003400000F07AFC0E4B04229A700D4B07221A80A3
:100350000B4B0122DA700A490A4800F06DFC0A22B0
:100360000849002000F054FD08220649002000F052
:100370004FFD09220349002000F04AFD00BF80BD67
:10038000200000200008014080B500AF012000F0EF
:100390005BF800BF80BD000080B500AF0A220749AE
:1003A000012000F035FD322000F02AFC0A2203492A
:1003B000002000F02DFD00BF80BD00BF00080140FF
:1003C00080B582B000AF03460A46FB711346BB718D
:1003D000FB79012B08D1BB790F2B05D8BB79803B6A
:1003E000DBB2184600F030F8FB79022B08D1BB795C
:1003F0000F2B05D8BB79403BDBB2184600F024F840
:1004000000BF0837BD4680BD80B500AF0D4B002250
:100410001A60142000F0F4FBFFF710FF0F2000F02B
:10042000EFFB012000F010F8382000F00DF8062056
:1004300000F00AF8802000F007F80F2000F004F820
:1004400000BF80BD2400002080B582B000AF03460D
:10045000FB71FB799BB20B49184600F0CBFC0922DB
:100460000849002000F0D4FC08220649002000F0D2
:10047000CFFC012000F0C4FBFFF78EFF00BF083760
:10048000BD4680BD0008014080B582B000AF034684
:10049000FB711A4B1B68102B04D100210220FFF7BF
:1004A0008FFF0DE0154B1B68202B09D10120FFF7B2
:1004B000CBFF00210120FFF783FF104B00221A60C1
:1004C0000E4B1B6801330D4A1360FB799BB20C493C
:1004D000184600F08FFC09220949002000F098FC22
:1004E00008220749012000F093FC012000F088FB5E
:1004F000FFF752FF00BF0837BD4680BD2400002033
:100500000008014080B582B000AF78601EE07B68D3
:100510001B781846FFF7B8FF104B1B68102B04D14F
:1005200000210220FFF74CFF0DE00C4B1B68202B35
:1005300009D10120FFF788FF00210120FFF740FFCC
:10054000064B00221A607B6801337B607B681B7856
:10055000002BDCD100BF0837BD4680BD2400002041
:1005600080B586B000AF174B9B69164A43F0040371
:100570009361144B9B69134A43F008039361114B39
:100580009B69104A43F001039361FFF73DFFFFF7BA
:10059000EFFD0D4A3B1D07CA83E8070001237B746A
:1005A00001233B74094B7B613B1D184600F01AF98F
:1005B000074B1B68002BFBD0FFF7E6FE044B002225
:1005C0001A60F5E700100240C00E0008D5050008CB
:1005D0001C00002080B500AF054B01221A600548C1
:1005E000FFF790FF40F6B83000F00AFB00BF80BD77
:1005F0001C000020CC0E00080D488546AFF300809B
:100600000C480D490D4A002302E0D458C45004336D
:10061000C4188C42F9D30A4A0A4C002301E0136043
:100620000432A242FBD300F01BFCFFF799FFFEE768
:10063000002800200000002000000020F00E00082C
:100640000000002068000020FEE7000080B483B0B6
:1006500000AF0346FB71FB790F2B54D801A252F86F
:1006600023F000BFA5060008B3060008C106000875
:10067000CF060008DD060008EB060008EB060008C0
:10068000EB060008EB060008EB060008F906000878
:10069000F9060008F9060008F9060008F90600083E
:1006A000F90600081A4B1B68194A43F0400313600F
:1006B00029E0174B1B68164A43F08003136022E0C1
:1006C000134B1B68124A43F4807313601BE0104BFA
:1006D0001B680F4A43F40073136014E00C4B1B6853
:1006E0000B4A43F4806313600DE0094B1B68084A12
:1006F00043F40003136006E0064B1B68054A43F40D
:100700008073136000BF00BF0C37BD4680BC7047CC
:1007100000E100E004E100E080B483B000AF0346F4
:10072000FB71FB790F2B54D801A252F823F000BFC4
:10073000710700087F0700088D0700089B07000865
:10074000A9070008B7070008B7070008B70700089F
:10075000B7070008B7070008C5070008C507000865
:10076000C5070008C5070008C5070008C507000839
:100770001A4B1B68194A43F04003136029E0174BDA
:100780001B68164A43F08003136022E0134B1B687A
:10079000124A43F4807313601BE0104B1B680F4A2E
:1007A00043F40073136014E00C4B1B680B4A43F4D2
:1007B000806313600DE0094B1B68084A43F4000393
:1007C000136006E0064B1B68054A43F48073136010
:1007D00000BF00BF0C37BD4680BC704780E100E021
:1007E00084E100E080B582B000AF7860786800F006
:1007F00005F800BF0837BD4680BD000080B584B055
:1008000000AF78600123BB727B681B7A9BB23B818F
:100810000023FB727B685B6807F1080211461846EB
:1008200000F00AFA7B681B789B08BB737B681B7817
:1008300003F00303DBB29B007B737B685B68614A58
:10084000934202D10023FB7316E07B685B685E4A2B
:10085000934202D10123FB730EE07B685B685B4A25
:10086000934202D10223FB7306E07B685B68584A1F
:10087000934201D10323FB73564ABB7B023352F8E8
:1008800023207B7B0F2101FA03F3DB4318465149F8
:10089000BB7B0240023341F823204E4ABB7B02332C
:1008A00052F82320F97B7B7B01FA03F31846494970
:1008B000BB7B0243023341F82320474B9B687A6895
:1008C0001278114601228A40D2431146424A0B4017
:1008D0009360414BDB687A681278114601228A40A6
:1008E000D24311463C4A0B40D3607B681B7B012BF3
:1008F0000FD0022B19D0002B2ED1374B9B687A6872
:100900001278114601228A401146334A0B43936004
:1009100022E0314BDB687A681278114601228A4066
:1009200011462D4A0B43D36016E02B4B9B687A6827
:100930001278114601228A401146274A0B439360E0
:10094000254BDB687A681278114601228A401146ED
:10095000214A0B43D36000BF7B681B7819467B6834
:100960001B691E4A42F821307B685B7B012B10D14A
:100970007B681B781846FFF769FE174B1B687A687F
:100980001278114601228A401146134A0B43136024
:1009900014E07B685B7B002B10D17B681B781846CA
:1009A000FFF7BAFE0C4B1B687A68127811460122D9
:1009B0008A40D2431146084A0B40136000BF1037EB
:1009C000BD4680BD00080140000C01400010014000
:1009D00000140140000001400004014028000020F4
:1009E00080B500AF054B5B69044A43F001035361D6
:1009F000034B1B68984700BF80BD00BF0004014047
:100A00002800002080B500AF054B5B69044A43F025
:100A100002035361034B5B68984700BF80BD00BF72
:100A2000000401402800002080B500AF054B5B6941
:100A3000044A43F004035361034B9B68984700BF8B
:100A400080BD00BF000401402800002080B500AF39
:100A5000054B5B69044A43F008035361034BDB68B1
:100A6000984700BF80BD00BF00040140280000205F
:100A700080B500AF054B5B69044A43F01003536136
:100A8000034B1B69984700BF80BD00BF00040140B5
:100A90002800002080B500AF264B5B6903F02003DF
:100AA000002B08D0234B5B69224A43F0200353619B
:100AB000214B5B6998471F4B5B6903F04003002B98
:100AC00008D01C4B5B691B4A43F0400353611A4B2F
:100AD0009B699847174B5B6903F08003002B08D094
:100AE000144B5B69134A43F080035361124BDB697B
:100AF0009847104B5B6903F48073002B08D00D4BB3
:100B00005B690C4A43F4807353610B4B1B6A984733
:100B1000084B5B6903F40073002B08D0054B5B693D
:100B2000044A43F400735361034B5B6A984700BF68
:100B300080BD00BF000401402800002080B500AF48
:100B40002D4B5B6903F48063002B08D02A4B5B6953
:100B5000294A43F480635361284B9B6A9847264B8C
:100B60005B6903F40063002B08D0234B5B69224AC6
:100B700043F400635361214BDB6A98471E4B5B696A
:100B800003F48053002B08D01B4B5B691A4A43F4D3
:100B900080535361194B1B6B9847174B5B6903F4E8
:100BA0000053002B08D0144B5B69134A43F40053E5
:100BB0005361124B5B6B98470F4B5B6903F48043A7
:100BC000002B08D00C4B5B690B4A43F48043536104
:100BD0000A4B9B6B9847084B5B6903F40043002B5F
:100BE00008D0054B5B69044A43F400435361034B4F
:100BF000DB6B984700BF80BD000401402800002047
:100C000080B485B000AF78600023FB600BE0002368
:100C1000BB6002E0BB680133BB60BB68FE2BF9D947
:100C2000FB680133FB60FA687B689A42EFD300BF30
:100C30001437BD4680BC704780B485B000AF786083
:100C400039603B689B78032B30D83B689B78032B3B
:100C50005DD801A252F823F0690C00086F0C00085F
:100C6000750C00088F0C00080023FB604FE0042384
:100C7000FB604CE00823FB607B68DB683A68128805
:100C8000114601228A401A437B68DA603FE008235C
:100C9000FB607B68DB683A681288114601228A4053
:100CA000D2431A407B68DA6000BF30E03B689B7833
:100CB000032B2CD93B689B78072B28D83B689B7863
:100CC000043B032B23D801A252F823F0DD0C0008CB
:100CD000E50C0008F30C0008010D00083B68DB7808
:100CE000FB6014E03B68DB7843F00403DBB2FB609D
:100CF0000DE03B68DB7843F00803DBB2FB6006E005
:100D00003B68DB7843F00C03DBB2FB6000BF3B6861
:100D10001B88072B17D87B681B683A6812889200DB
:100D20000F2101FA02F2D2431A407B681A607B68F5
:100D30001A683B681B889B00F96801FA03F31A43A1
:100D40007B681A6051E03B681B88102B30D1FB6830
:100D50001A01FB681A43FB681B021A43FB681B035A
:100D60001A43FB681B041A43FB681B051A43FB6804
:100D70001B061A43FB681B071A437B681A60FB6853
:100D80001A01FB681A43FB681B021A43FB681B032A
:100D90001A43FB681B041A43FB681B051A43FB68D4
:100DA0001B061A43FB681B071A437B685A601CE04A
:100DB0003B681B880F2B18D87B685B683A681288E1
:100DC000083A92000F2101FA02F2D2431A407B68DE
:100DD0005A607B685A683B681B88083B9B00F9682F
:100DE00001FA03F31A437B685A6000BF1437BD460B
:100DF00080BC704780B483B000AF03463960FB808D
:100E0000FA883B68DA6000BF0C37BD4680BC70478B
:100E100080B483B000AF03463960FB711346BB71E9
:100E2000FB79002B0AD13B68DB68BA79012101FA12
:100E300002F2D2431A403B68DA600BE0FB79012BE7
:100E400008D13B68DB68BA79012101FA02F21A4342
:100E50003B68DA6000BF0C37BD4680BC70470000BD
:100E600070B500250C4E0D4CA41BA410A54209D151
:100E700000F01AF800250A4E0A4CA41BA410A54243
:100E800005D170BD56F8253098470135EEE756F884
:100E9000253098470135F2E7E80E0008E80E000813
:100EA000E80E0008EC0E0008F8B500BFF8BC08BC5E
:100EB0009E467047F8B500BFF8BC08BC9E46704718
:100EC00009000000000C01400917000049525120A0
:100ED00045585449392049532048415050454E44C3
:080EE000205F7C2D20000000C2
:040EE80055010008A8
:040EEC0031010008C8
:04000005080005F9F1
:00000001FF
