:020000040800F2
:100000000028002071020008C1020008C102000897
:10001000C1020008C1020008C1020008000000007F
:10002000000000000000000000000000C102000805
:10003000C102000800000000C1020008C10200085F
:10004000C1020008C1020008C1020008C102000884
:10005000C1020008C1020008C1020008C102000874
:10006000C1020008C1020008C1020008C102000864
:10007000C1020008C1020008C1020008C102000854
:10008000C1020008C1020008C1020008C102000844
:10009000C1020008C1020008C1020008C102000834
:1000A000C1020008C1020008C1020008C102000824
:1000B000C1020008C1020008C1020008C102000814
:1000C000C1020008C1020008C1020008C102000804
:1000D000C1020008C1020008C1020008C1020008F4
:1000E000C1020008C102000800000000C1020008AF
:1000F000C1020008C1020008C1020008C1020008D4
:10010000C1020008C1020008C1020008C1020008C3
:10011000C1020008C1020008C1020008C1020008B3
:10012000C1020008C1020008C1020008C1020008A3
:1001300010B5054C237833B9044B13B10448AFF321
:1001400000800123237010BD00000020000000008B
:100150002005000808B5034B1BB103490348AFF362
:10016000008008BD000000000400002020050008F9
:1001700080B485B000AF78600023FB600BE0002303
:10018000BB6002E0BB680133BB60BB68FE2BF9D9E2
:10019000FB680133FB60FA687B689A42EFD300BFCB
:1001A0001437BD4680BC704780B582B000AF2D4B80
:1001B0009B692C4A43F0040393612A4B9B69294AAB
:1001C00043F0080393610123BB710123BB8000232B
:1001D000FB713B1D1946244800F074F80123BB71E4
:1001E0000D23BB800023FB713B1D19461E4800F008
:1001F00069F80423BB710123BB800123FB713B1D04
:1002000019461A4800F05EF80423BB710D23BB8029
:100210000123FB713B1D1946144800F053F80121DE
:10022000114800F02DF90346002B0BD101210F4896
:1002300000F03DF900BF01210B4800F021F9034611
:10024000002BF8D00D21084800F01AF90346012BC5
:1002500003D10D21054800F02AF93220FFF788FF6D
:10026000DDE700BF0010024000080140000C014023
:100270000D488546AFF300800C480D490D4A002318
:1002800002E0D458C4500433C4188C42F9D30A4A4B
:100290000A4C002301E013600432A242FBD300F0B9
:1002A0001BF9FFF781FFFEE7002800200000002077
:1002B0000000002040050008000000201C00002075
:1002C000FEE7000080B485B000AF786039603B681D
:1002D0009B78032B30D83B689B78032B5DD801A219
:1002E00052F823F0F5020008FB02000801030008A1
:1002F0001B0300080023FB604FE00423FB604CE07D
:100300000823FB607B68DB683A681288114601228B
:100310008A401A437B68DA603FE00823FB607B6811
:10032000DB683A681288114601228A40D2431A409B
:100330007B68DA6000BF30E03B689B78032B2CD9E8
:100340003B689B78072B28D83B689B78043B032BA2
:1003500023D801A252F823F06903000871030008B2
:100360007F0300088D0300083B68DB78FB6014E026
:100370003B68DB7843F00403DBB2FB600DE03B68D5
:10038000DB7843F00803DBB2FB6006E03B68DB7818
:1003900043F00C03DBB2FB6000BF3B681B88072BFC
:1003A00017D87B681B683A68128892000F2101FAFF
:1003B00002F2D2431A407B681A607B681A683B6875
:1003C0001B889B00F96801FA03F31A437B681A60E3
:1003D00051E03B681B88102B30D1FB681A01FB6889
:1003E0001A43FB681B021A43FB681B031A43FB6892
:1003F0001B041A43FB681B051A43FB681B061A43C0
:10040000FB681B071A437B681A60FB681A01FB68CC
:100410001A43FB681B021A43FB681B031A43FB6861
:100420001B041A43FB681B051A43FB681B061A438F
:10043000FB681B071A437B685A601CE03B681B88FB
:100440000F2B18D87B685B683A681288083A9200CC
:100450000F2101FA02F2D2431A407B685A607B688E
:100460005A683B681B88083B9B00F96801FA03F354
:100470001A437B685A6000BF1437BD4680BC704782
:1004800080B483B000AF78600B46FB707B689B68DC
:10049000FA78012101FA02F21340002B01D1002366
:1004A00000E0012318460C37BD4680BC704780B47D
:1004B00083B000AF78600B46FB707B68DB68FA782E
:1004C000012101FA02F25A407B68DA6000BF0C3762
:1004D000BD4680BC7047000070B500250C4E0D4C29
:1004E000A41BA410A54209D100F01AF800250A4E59
:1004F0000A4CA41BA410A54205D170BD56F82530A6
:1005000098470135EEE756F8253098470135F2E770
:100510003805000838050008380500083C050008C3
:10052000F8B500BFF8BC08BC9E467047F8B500BFE0
:08053000F8BC08BC9E467047B0
:040538005501000861
:04053C003101000881
:04000005080002717C
:00000001FF
