:020000040800F2
:1000000000280020F9010008490200084902000800
:1000100049020008490200084902000800000000E7
:10002000000000000000000000000000490200087D
:1000300049020008000000004902000849020008C7
:100040004902000849020008490200084902000864
:1000500049020008490200086503000889030008F6
:10006000AD030008D1030008F503000849020008A9
:100070004902000849020008490200084902000834
:100080004902000849020008490200084902000824
:100090004902000849020008490200081904000842
:1000A0004902000849020008490200084902000804
:1000B00049020008490200084902000849020008F4
:1000C00049020008490200084902000849020008E4
:1000D00049020008850E0008990E0008AD0E0008C0
:1000E000C10400084902000800000000490200089D
:1000F00049020008490200084902000849020008B4
:1001000049020008490200084902000849020008A3
:100110004902000849020008490200084902000893
:100120004902000849020008490200084902000883
:1001300010B5054C237833B9044B13B10448AFF321
:1001400000800123237010BD180000200000000073
:10015000080F000808B5034B1BB103490348AFF370
:10016000008008BD000000001C000020080F0008EF
:1001700080B500AF01220549054800F0DBFD0022F3
:100180000249034800F07CFD00BF80BD5400002000
:100190000038014080B500AF134B9B69124A43F011
:1001A00004039361114B4FF4E1325A600F4B00226C
:1001B000DA600E4B00225A610C4B00221A610B4B85
:1001C0000C221A60094B00229A60084B20229A6187
:1001D000064B074ADA610749044800F0B1FA0548BE
:1001E00000F0AAFBFEE700BF001002403400002030
:1001F00071010008003801400D488546AFF30080CA
:100200000C480D490D4A002302E0D458C450043371
:10021000C4188C42F9D30A4A0A4C002301E0136047
:100220000432A242FBD300F04BFEFFF7B3FFFEE720
:10023000002800200000002018000020280F0008DF
:1002400018000020D8000020FEE7000080B483B032
:1002500000AF224B5B689B0803F00303012B06D021
:10026000012B02D3022B04D033E01D4B31E01D4B98
:100270002FE01A4B5B681B0C03F00103002B0AD024
:10028000164B5B689B0C03F00F030133154A02FB0E
:1002900003F37B601BE0114B5B685B0C03F0010315
:1002A000002B0AD00D4B5B689B0C03F00F0301334E
:1002B0000D4A02FB03F37B6009E0084B5B689B0C73
:1002C00003F00F030133064A02FB03F37B607B68F4
:1002D000FFE718460C37BD4680BC7047001002404F
:1002E00000127A000024F40000093D0080B500AF40
:1002F000FFF7ACFF0146054B5B681B0903F00F03DA
:10030000034AD35C21FA03F3184680BD0010024073
:100310000000002080B500AFFFF7E8FF0146054B65
:100320005B681B0A03F00703034AD35C21FA03F35B
:10033000184680BD001002401000002080B500AFBC
:10034000FFF7D4FF0146054B5B68DB0A03F00703A8
:10035000034AD35C21FA03F3184680BD0010024023
:100360001000002080B500AF054B5B69044A43F0E4
:1003700001035361034B1B68984700BF80BD00BF5A
:10038000000401409800002080B500AF054B5B6978
:10039000044A43F002035361034B5B68984700BF74
:1003A00080BD00BF000401409800002080B500AF70
:1003B000054B5B69044A43F004035361034B9B689C
:1003C000984700BF80BD00BF000401409800002096
:1003D00080B500AF054B5B69044A43F008035361E5
:1003E000034BDB68984700BF80BD00BF000401409D
:1003F0009800002080B500AF054B5B69044A43F0CC
:1004000010035361034B1B69984700BF80BD00BFB9
:10041000000401409800002080B500AF264B5B69C6
:1004200003F02003002B08D0234B5B69224A43F0E2
:1004300020035361214B5B6998471F4B5B6903F0B5
:100440004003002B08D01C4B5B691B4A43F0400360
:1004500053611A4B9B699847174B5B6903F0800304
:10046000002B08D0144B5B69134A43F0800353619F
:10047000124BDB699847104B5B6903F48073002BC8
:1004800008D00D4B5B690C4A43F4807353610B4BEE
:100490001B6A9847084B5B6903F40073002B08D074
:1004A000054B5B69044A43F400735361034B5B6A79
:1004B000984700BF80BD00BF0004014098000020A5
:1004C00080B500AF2D4B5B6903F48063002B08D02F
:1004D0002A4B5B69294A43F480635361284B9B6A2A
:1004E0009847264B5B6903F40063002B08D0234B2D
:1004F0005B69224A43F400635361214BDB6A9847EE
:100500001E4B5B6903F48053002B08D01B4B5B69C7
:100510001A4A43F480535361194B1B6B9847174B8E
:100520005B6903F40053002B08D0144B5B69134A3A
:1005300043F400535361124B5B6B98470F4B5B695D
:1005400003F48043002B08D00C4B5B690B4A43F447
:10055000804353610A4B9B6B9847084B5B6903F4DC
:100560000043002B08D0054B5B69044A43F4004369
:100570005361034BDB6B984700BF80BD0004014013
:100580009800002080B485B000AF786039603B6887
:100590009B78032B30D83B689B78032B5DD801A256
:1005A00052F823F0B5050008BB050008C105000896
:1005B000DB0500080023FB604FE00423FB604CE0F8
:1005C0000823FB607B68DB683A68128811460122C9
:1005D0008A401A437B68DA603FE00823FB607B684F
:1005E000DB683A681288114601228A40D2431A40D9
:1005F0007B68DA6000BF30E03B689B78032B2CD926
:100600003B689B78072B28D83B689B78043B032BDF
:1006100023D801A252F823F0290600083106000869
:100620003F0600084D0600083B68DB78FB6014E0DD
:100630003B68DB7843F00403DBB2FB600DE03B6812
:10064000DB7843F00803DBB2FB6006E03B68DB7855
:1006500043F00C03DBB2FB6000BF3B681B88072B39
:1006600017D87B681B683A68128892000F2101FA3C
:1006700002F2D2431A407B681A607B681A683B68B2
:100680001B889B00F96801FA03F31A437B681A6020
:1006900051E03B681B88102B30D1FB681A01FB68C6
:1006A0001A43FB681B021A43FB681B031A43FB68CF
:1006B0001B041A43FB681B051A43FB681B061A43FD
:1006C000FB681B071A437B681A60FB681A01FB680A
:1006D0001A43FB681B021A43FB681B031A43FB689F
:1006E0001B041A43FB681B051A43FB681B061A43CD
:1006F000FB681B071A437B685A601CE03B681B8839
:100700000F2B18D87B685B683A681288083A920009
:100710000F2101FA02F2D2431A407B685A607B68CB
:100720005A683B681B88083B9B00F96801FA03F391
:100730001A437B685A6000BF1437BD4680BC7047BF
:1007400080B584B000AF786039603B68754A9342E9
:1007500006D1754B9B69744A43F48043936110E062
:100760003B68724A934206D16F4BDB696E4A43F491
:100770000033D36105E06C4BDB696B4A43F48023A3
:10078000D3613B68DB6823F400523B68DA603B6866
:10079000DB6843F400523B68DA603B68DB6823F4B3
:1007A00080523B68DA603B68DA687B689B681A4372
:1007B0003B68DA603B68DB6823F440723B68DA60D0
:1007C0003B68DA687B68DB681A433B68DA603B6841
:1007D0001B6923F440523B681A613B681A697B68C5
:1007E0001B691A433B681A613B685B6923F44072DA
:1007F0003B685A613B685A697B685B691A433B688E
:100800005A613B68474A934228D1FFF797FDB86089
:100810007B685B681B01BA68B2FBF3F31901BA6825
:1008200013469B0013449A001A447B685B689B0044
:10083000B2FBF3F27B685B681B01B868B0FBF3F3B3
:10084000642000FB03F3D31A1B01394AA2FB0323E4
:100850005B0903F00F030B43FB6027E0FFF75AFD32
:10086000B8607B685B681B01BA68B2FBF3F31901DF
:10087000BA6813469B0013449A001A447B685B686D
:100880009B00B2FBF3F27B685B681B01B868B0FBAE
:10089000F3F3642000FB03F3D31A1B01244AA2FBE9
:1008A00003235B0903F00F030B43FB603B68FA680B
:1008B0009A603B68DB6823F00C023B68DA603B68B7
:1008C000DA687B681B681A433B68DA607B689B695F
:1008D000002B22D03B68DA687B689B691A433B682F
:1008E000DA603B680F4A934206D1124B1B68114AEB
:1008F00043F02003136010E03B680C4A934206D19A
:100900000C4B1B680B4A43F04003136005E0094B96
:100910001B68084A43F08003136000BF1037BD46D0
:1009200080BD00BF0038014000100240004400407C
:100930001F85EB5104E100E080B584B000AF786022
:100940007B68B54A934240F08180B44B1B68082B0A
:100950000CD10923BB810623BB730123FB7307F171
:100960000C031946AE48FFF70DFE2CE0AB4B1B689D
:10097000042B0CD10A23BB810123BB730023FB731F
:1009800007F10C031946A648FFF7FCFD1BE0A34B3B
:100990001B680C2B17D10923BB810623BB730123D2
:1009A000FB7307F10C0319469D48FFF7EBFD0A2383
:1009B000BB810123BB730023FB7307F10C031946B2
:1009C0009748FFF7DFFD954B5B69B3F5007F0CD1CE
:1009D0000B23BB810123BB730023FB7307F10C03C3
:1009E00019468F48FFF7CEFDF2E08C4B5B69B3F5FB
:1009F000807F0CD10C23BB810623BB730123FB73C7
:100A000007F10C0319468648FFF7BCFDE0E0834B75
:100A10005B69B3F5407F40F0DB800B23BB81012392
:100A2000BB730023FB7307F10C0319467C48FFF7E7
:100A3000A9FD0C23BB810623BB730123FB7307F1C4
:100A40000C0319467648FFF79DFDC1E07B68754AA7
:100A500093427FD1744B1B68082B0CD10223BB81BE
:100A60000623BB730123FB7307F10C0319466C4883
:100A7000FFF788FD2CE06C4B1B68042B0CD1032383
:100A8000BB810123BB730023FB7307F10C031946E1
:100A90006348FFF777FD1BE0634B1B680C2B17D1F6
:100AA0000223BB810623BB730123FB7307F10C03F5
:100AB00019465B48FFF766FD0323BB810123BB7327
:100AC0000023FB7307F10C0319465548FFF75AFD45
:100AD000554B5B69B3F5007F0CD10023BB8101232B
:100AE000BB730023FB7307F10C0319464C48FFF757
:100AF00049FD6DE04C4B5B69B3F5807F0CD1012360
:100B0000BB810623BB730123FB7307F10C0319465A
:100B10004348FFF737FD5BE0434B5B69B3F5407F2C
:100B200056D10023BB810123BB730023FB7307F164
:100B30000C0319463A48FFF725FD0123BB81062324
:100B4000BB730123FB7307F10C0319463448FFF70D
:100B500019FD3DE0354B1B68082B0CD10A23BB81E6
:100B60000623BB730123FB7307F10C0319463048BE
:100B7000FFF708FD2CE02D4B1B68042B0CD10B2339
:100B8000BB810123BB730023FB7307F10C031946E0
:100B90002748FFF7F7FC1BE0244B1B680C2B17D1F1
:100BA0000A23BB810623BB730123FB7307F10C03EC
:100BB00019461F48FFF7E6FC0B23BB810123BB73DB
:100BC0000023FB7307F10C0319461948FFF7DAFC01
:100BD000164B5B69B3F5007F0CD10D23BB8101235C
:100BE000BB730023FB7307F10C0319461048FFF792
:100BF000C9FC3CE00D4B5B69B3F5807F1AD10E2335
:100C0000BB810623BB730123FB7307F10C03194659
:100C10000748FFF7B7FC2AE0003801403400002005
:100C200000080140004400407800002058000020E7
:100C3000000C0140104B5B69B3F5407F17D10D23C9
:100C4000BB810123BB730023FB7307F10C0319461F
:100C50000A48FFF797FC0E23BB810623BB730123D1
:100C6000FB7307F10C0319460448FFF78BFC00BF28
:100C70001037BD4680BD00BF34000020000C01408D
:100C800080B485B000AFF860B9601346FB71FB79A2
:100C9000002B05D100BFFB681B68DB09002BFAD0D5
:100CA000FB681F4A934210D11E4B9B68002B06D154
:100CB000BB681B88C3F30802FB685A602AE0BB6864
:100CC0001B88DAB2FB685A6024E0FB68164A93423C
:100CD00010D1164B9B68002B06D1BB681B88C3F351
:100CE0000802FB685A6015E0BB681B88DAB2FB6833
:100CF0005A600FE00E4B9B68002B06D1BB681B8827
:100D0000C3F30802FB685A6004E0BB681B88DAB2D0
:100D1000FB685A6000BF1437BD4680BC704700BFF7
:100D200000380140340000200044004078000020DA
:100D30005800002080B485B000AFF860B960134659
:100D4000FB71FB79002B06D100BFFB681B6803F029
:100D50002003002BF9D0FB68454A93422AD1454B2A
:100D60009B68002B11D1434BDB68002B05D1FB683E
:100D70005B689AB2BB681A8075E0FB685B689BB2DF
:100D8000DBB29AB2BB681A806DE03A4BDB68002B8D
:100D900007D1FB685B689BB2DBB29AB2BB681A8072
:100DA00061E0FB685B689BB203F07F039AB2BB68AB
:100DB0001A8058E0FB68304A93422AD12F4B9B6837
:100DC000002B11D12D4BDB68002B05D1FB685B6834
:100DD0009AB2BB681A8046E0FB685B689BB2DBB2E4
:100DE0009AB2BB681A803EE0244BDB68002B07D127
:100DF000FB685B689BB2DBB29AB2BB681A8032E0D8
:100E0000FB685B689BB203F07F039AB2BB681A80F1
:100E100029E01B4B9B68002B11D1194BDB68002B81
:100E200005D1FB685B689AB2BB681A801BE0FB685F
:100E30005B689BB2DBB29AB2BB681A8013E0104BBE
:100E4000DB68002B07D1FB685B689BB2DBB29AB210
:100E5000BB681A8007E0FB685B689BB203F07F0306
:100E60009AB2BB681A8000BF1437BD4680BC704779
:100E70000038014034000020004400407800002089
:100E80005800002080B500AF024BDB69984700BFD7
:100E900080BD00BF3400002080B500AF024BDB698D
:100EA000984700BF80BD00BF7800002080B500AF2C
:100EB000024BDB69984700BF80BD00BF580000208F
:100EC00070B500250C4E0D4CA41BA410A54209D1F1
:100ED00000F01AF800250A4E0A4CA41BA410A542E3
:100EE00005D170BD56F8253098470135EEE756F824
:100EF000253098470135F2E7200F0008200F000841
:100F0000200F0008240F0008F8B500BFF8BC08BC8B
:100F10009E467047F8B500BFF8BC08BC9E467047B7
:040F2000550100086F
:040F2400310100088F
:100F28000000000000000000010203040506070895
:080F38000000000001020304A7
:04000005080001F9F5
:00000001FF
